{
  "_format": "hh-sol-artifact-1",
  "contractName": "HederaSUiet",
  "sourceName": "contracts/erc-721-token.sol",
  "abi": [
    {
      "inputs": [
        {
          "internalType": "address",
          "name": "initialOwner",
          "type": "address"
        }
      ],
      "stateMutability": "nonpayable",
      "type": "constructor"
    },
    {
      "inputs": [
        {
          "internalType": "address",
          "name": "sender",
          "type": "address"
        },
        {
          "internalType": "uint256",
          "name": "tokenId",
          "type": "uint256"
        },
        {
          "internalType": "address",
          "name": "owner",
          "type": "address"
        }
      ],
      "name": "ERC721IncorrectOwner",
      "type": "error"
    },
    {
      "inputs": [
        {
          "internalType": "address",
          "name": "operator",
          "type": "address"
        },
        {
          "internalType": "uint256",
          "name": "tokenId",
          "type": "uint256"
        }
      ],
      "name": "ERC721InsufficientApproval",
      "type": "error"
    },
    {
      "inputs": [
        {
          "internalType": "address",
          "name": "approver",
          "type": "address"
        }
      ],
      "name": "ERC721InvalidApprover",
      "type": "error"
    },
    {
      "inputs": [
        {
          "internalType": "address",
          "name": "operator",
          "type": "address"
        }
      ],
      "name": "ERC721InvalidOperator",
      "type": "error"
    },
    {
      "inputs": [
        {
          "internalType": "address",
          "name": "owner",
          "type": "address"
        }
      ],
      "name": "ERC721InvalidOwner",
      "type": "error"
    },
    {
      "inputs": [
        {
          "internalType": "address",
          "name": "receiver",
          "type": "address"
        }
      ],
      "name": "ERC721InvalidReceiver",
      "type": "error"
    },
    {
      "inputs": [
        {
          "internalType": "address",
          "name": "sender",
          "type": "address"
        }
      ],
      "name": "ERC721InvalidSender",
      "type": "error"
    },
    {
      "inputs": [
        {
          "internalType": "uint256",
          "name": "tokenId",
          "type": "uint256"
        }
      ],
      "name": "ERC721NonexistentToken",
      "type": "error"
    },
    {
      "inputs": [
        {
          "internalType": "address",
          "name": "owner",
          "type": "address"
        }
      ],
      "name": "OwnableInvalidOwner",
      "type": "error"
    },
    {
      "inputs": [
        {
          "internalType": "address",
          "name": "account",
          "type": "address"
        }
      ],
      "name": "OwnableUnauthorizedAccount",
      "type": "error"
    },
    {
      "anonymous": false,
      "inputs": [
        {
          "indexed": true,
          "internalType": "address",
          "name": "owner",
          "type": "address"
        },
        {
          "indexed": true,
          "internalType": "address",
          "name": "approved",
          "type": "address"
        },
        {
          "indexed": true,
          "internalType": "uint256",
          "name": "tokenId",
          "type": "uint256"
        }
      ],
      "name": "Approval",
      "type": "event"
    },
    {
      "anonymous": false,
      "inputs": [
        {
          "indexed": true,
          "internalType": "address",
          "name": "owner",
          "type": "address"
        },
        {
          "indexed": true,
          "internalType": "address",
          "name": "operator",
          "type": "address"
        },
        {
          "indexed": false,
          "internalType": "bool",
          "name": "approved",
          "type": "bool"
        }
      ],
      "name": "ApprovalForAll",
      "type": "event"
    },
    {
      "anonymous": false,
      "inputs": [
        {
          "indexed": true,
          "internalType": "address",
          "name": "previousOwner",
          "type": "address"
        },
        {
          "indexed": true,
          "internalType": "address",
          "name": "newOwner",
          "type": "address"
        }
      ],
      "name": "OwnershipTransferred",
      "type": "event"
    },
    {
      "anonymous": false,
      "inputs": [
        {
          "indexed": true,
          "internalType": "address",
          "name": "from",
          "type": "address"
        },
        {
          "indexed": true,
          "internalType": "address",
          "name": "to",
          "type": "address"
        },
        {
          "indexed": true,
          "internalType": "uint256",
          "name": "tokenId",
          "type": "uint256"
        }
      ],
      "name": "Transfer",
      "type": "event"
    },
    {
      "inputs": [
        {
          "internalType": "address",
          "name": "to",
          "type": "address"
        },
        {
          "internalType": "uint256",
          "name": "tokenId",
          "type": "uint256"
        }
      ],
      "name": "approve",
      "outputs": [],
      "stateMutability": "nonpayable",
      "type": "function"
    },
    {
      "inputs": [
        {
          "internalType": "address",
          "name": "owner",
          "type": "address"
        }
      ],
      "name": "balanceOf",
      "outputs": [
        {
          "internalType": "uint256",
          "name": "",
          "type": "uint256"
        }
      ],
      "stateMutability": "view",
      "type": "function"
    },
    {
      "inputs": [
        {
          "internalType": "uint256",
          "name": "tokenId",
          "type": "uint256"
        }
      ],
      "name": "burn",
      "outputs": [],
      "stateMutability": "nonpayable",
      "type": "function"
    },
    {
      "inputs": [
        {
          "internalType": "uint256",
          "name": "tokenId",
          "type": "uint256"
        }
      ],
      "name": "getApproved",
      "outputs": [
        {
          "internalType": "address",
          "name": "",
          "type": "address"
        }
      ],
      "stateMutability": "view",
      "type": "function"
    },
    {
      "inputs": [
        {
          "internalType": "address",
          "name": "owner",
          "type": "address"
        },
        {
          "internalType": "address",
          "name": "operator",
          "type": "address"
        }
      ],
      "name": "isApprovedForAll",
      "outputs": [
        {
          "internalType": "bool",
          "name": "",
          "type": "bool"
        }
      ],
      "stateMutability": "view",
      "type": "function"
    },
    {
      "inputs": [],
      "name": "name",
      "outputs": [
        {
          "internalType": "string",
          "name": "",
          "type": "string"
        }
      ],
      "stateMutability": "view",
      "type": "function"
    },
    {
      "inputs": [],
      "name": "owner",
      "outputs": [
        {
          "internalType": "address",
          "name": "",
          "type": "address"
        }
      ],
      "stateMutability": "view",
      "type": "function"
    },
    {
      "inputs": [
        {
          "internalType": "uint256",
          "name": "tokenId",
          "type": "uint256"
        }
      ],
      "name": "ownerOf",
      "outputs": [
        {
          "internalType": "address",
          "name": "",
          "type": "address"
        }
      ],
      "stateMutability": "view",
      "type": "function"
    },
    {
      "inputs": [],
      "name": "renounceOwnership",
      "outputs": [],
      "stateMutability": "nonpayable",
      "type": "function"
    },
    {
      "inputs": [
        {
          "internalType": "address",
          "name": "to",
          "type": "address"
        }
      ],
      "name": "safeMint",
      "outputs": [
        {
          "internalType": "uint256",
          "name": "",
          "type": "uint256"
        }
      ],
      "stateMutability": "nonpayable",
      "type": "function"
    },
    {
      "inputs": [
        {
          "internalType": "address",
          "name": "from",
          "type": "address"
        },
        {
          "internalType": "address",
          "name": "to",
          "type": "address"
        },
        {
          "internalType": "uint256",
          "name": "tokenId",
          "type": "uint256"
        }
      ],
      "name": "safeTransferFrom",
      "outputs": [],
      "stateMutability": "nonpayable",
      "type": "function"
    },
    {
      "inputs": [
        {
          "internalType": "address",
          "name": "from",
          "type": "address"
        },
        {
          "internalType": "address",
          "name": "to",
          "type": "address"
        },
        {
          "internalType": "uint256",
          "name": "tokenId",
          "type": "uint256"
        },
        {
          "internalType": "bytes",
          "name": "data",
          "type": "bytes"
        }
      ],
      "name": "safeTransferFrom",
      "outputs": [],
      "stateMutability": "nonpayable",
      "type": "function"
    },
    {
      "inputs": [
        {
          "internalType": "address",
          "name": "operator",
          "type": "address"
        },
        {
          "internalType": "bool",
          "name": "approved",
          "type": "bool"
        }
      ],
      "name": "setApprovalForAll",
      "outputs": [],
      "stateMutability": "nonpayable",
      "type": "function"
    },
    {
      "inputs": [
        {
          "internalType": "bytes4",
          "name": "interfaceId",
          "type": "bytes4"
        }
      ],
      "name": "supportsInterface",
      "outputs": [
        {
          "internalType": "bool",
          "name": "",
          "type": "bool"
        }
      ],
      "stateMutability": "view",
      "type": "function"
    },
    {
      "inputs": [],
      "name": "symbol",
      "outputs": [
        {
          "internalType": "string",
          "name": "",
          "type": "string"
        }
      ],
      "stateMutability": "view",
      "type": "function"
    },
    {
      "inputs": [
        {
          "internalType": "uint256",
          "name": "tokenId",
          "type": "uint256"
        }
      ],
      "name": "tokenURI",
      "outputs": [
        {
          "internalType": "string",
          "name": "",
          "type": "string"
        }
      ],
      "stateMutability": "view",
      "type": "function"
    },
    {
      "inputs": [
        {
          "internalType": "address",
          "name": "from",
          "type": "address"
        },
        {
          "internalType": "address",
          "name": "to",
          "type": "address"
        },
        {
          "internalType": "uint256",
          "name": "tokenId",
          "type": "uint256"
        }
      ],
      "name": "transferFrom",
      "outputs": [],
      "stateMutability": "nonpayable",
      "type": "function"
    },
    {
      "inputs": [
        {
          "internalType": "address",
          "name": "newOwner",
          "type": "address"
        }
      ],
      "name": "transferOwnership",
      "outputs": [],
      "stateMutability": "nonpayable",
      "type": "function"
    }
  ],
  "bytecode": "0x60806040523480156200001157600080fd5b50604051620014733803806200147383398101604081905262000034916200012f565b806040518060400160405280600b81526020016a121959195c9854d55a595d60aa1b815250604051806040016040528060068152602001651214d552515560d21b815250816000908162000089919062000208565b50600162000098828262000208565b5050506001600160a01b038116620000ca57604051631e4fbdf760e01b81526000600482015260240160405180910390fd5b620000d581620000dd565b5050620002d4565b600680546001600160a01b038381166001600160a01b0319831681179093556040519116919082907f8be0079c531659141344cd1fd0a4f28419497f9722a3daafe3b4186f6b6457e090600090a35050565b6000602082840312156200014257600080fd5b81516001600160a01b03811681146200015a57600080fd5b9392505050565b634e487b7160e01b600052604160045260246000fd5b600181811c908216806200018c57607f821691505b602082108103620001ad57634e487b7160e01b600052602260045260246000fd5b50919050565b601f82111562000203576000816000526020600020601f850160051c81016020861015620001de5750805b601f850160051c820191505b81811015620001ff57828155600101620001ea565b5050505b505050565b81516001600160401b0381111562000224576200022462000161565b6200023c8162000235845462000177565b84620001b3565b602080601f8311600181146200027457600084156200025b5750858301515b600019600386901b1c1916600185901b178555620001ff565b600085815260208120601f198616915b82811015620002a55788860151825594840194600190910190840162000284565b5085821015620002c45787850151600019600388901b60f8161c191681555b5050505050600190811b01905550565b61118f80620002e46000396000f3fe608060405234801561001057600080fd5b50600436106101165760003560e01c806370a08231116100a2578063a22cb46511610071578063a22cb46514610239578063b88d4fde1461024c578063c87b56dd1461025f578063e985e9c514610272578063f2fde38b146102ae57600080fd5b806370a0823114610205578063715018a6146102185780638da5cb5b1461022057806395d89b411461023157600080fd5b806323b872dd116100e957806323b872dd1461019857806340d097c3146101ab57806342842e0e146101cc57806342966c68146101df5780636352211e146101f257600080fd5b806301ffc9a71461011b57806306fdde0314610143578063081812fc14610158578063095ea7b314610183575b600080fd5b61012e610129366004610dde565b6102c1565b60405190151581526020015b60405180910390f35b61014b610313565b60405161013a9190610e4b565b61016b610166366004610e5e565b6103a5565b6040516001600160a01b03909116815260200161013a565b610196610191366004610e8e565b6103ce565b005b6101966101a6366004610eb8565b6103dd565b6101be6101b9366004610ef4565b61046d565b60405190815260200161013a565b6101966101da366004610eb8565b6104a0565b6101966101ed366004610e5e565b6104c0565b61016b610200366004610e5e565b6104cc565b6101be610213366004610ef4565b6104d7565b61019661051f565b6006546001600160a01b031661016b565b61014b610533565b610196610247366004610f0f565b610542565b61019661025a366004610f61565b61054d565b61014b61026d366004610e5e565b610565565b61012e61028036600461103d565b6001600160a01b03918216600090815260056020908152604080832093909416825291909152205460ff1690565b6101966102bc366004610ef4565b6105da565b60006001600160e01b031982166380ac58cd60e01b14806102f257506001600160e01b03198216635b5e139f60e01b145b8061030d57506301ffc9a760e01b6001600160e01b03198316145b92915050565b60606000805461032290611070565b80601f016020809104026020016040519081016040528092919081815260200182805461034e90611070565b801561039b5780601f106103705761010080835404028352916020019161039b565b820191906000526020600020905b81548152906001019060200180831161037e57829003601f168201915b5050505050905090565b60006103b082610618565b506000828152600460205260409020546001600160a01b031661030d565b6103d9828233610651565b5050565b6001600160a01b03821661040c57604051633250574960e11b8152600060048201526024015b60405180910390fd5b600061041983833361065e565b9050836001600160a01b0316816001600160a01b031614610467576040516364283d7b60e01b81526001600160a01b0380861660048301526024820184905282166044820152606401610403565b50505050565b6000610477610757565b6007805460009182610488836110aa565b9190505590506104988382610784565b90505b919050565b6104bb8383836040518060200160405280600081525061054d565b505050565b6103d96000823361065e565b600061030d82610618565b60006001600160a01b038216610503576040516322718ad960e21b815260006004820152602401610403565b506001600160a01b031660009081526003602052604090205490565b610527610757565b610531600061079e565b565b60606001805461032290611070565b6103d93383836107f0565b6105588484846103dd565b610467338585858561088f565b606061057082610618565b50600061058860408051602081019091526000815290565b905060008151116105a857604051806020016040528060008152506105d3565b806105b2846109ba565b6040516020016105c39291906110d1565b6040516020818303038152906040525b9392505050565b6105e2610757565b6001600160a01b03811661060c57604051631e4fbdf760e01b815260006004820152602401610403565b6106158161079e565b50565b6000818152600260205260408120546001600160a01b03168061049857604051637e27328960e01b815260048101849052602401610403565b6104bb8383836001610a5a565b6000828152600260205260408120546001600160a01b039081169083161561068b5761068b818486610b7f565b6001600160a01b038116156106c9576106a8600085600080610a5a565b6001600160a01b038116600090815260036020526040902080546000190190555b6001600160a01b038516156106f8576001600160a01b0385166000908152600360205260409020805460010190555b60008481526002602052604080822080546001600160a01b0319166001600160a01b0389811691821790925591518793918516917fddf252ad1be2c89b69c2b068fc378daa952ba7f163c4a11628f55a4df523b3ef91a4949350505050565b6006546001600160a01b031633146105315760405163118cdaa760e01b8152336004820152602401610403565b6103d9828260405180602001604052806000815250610be3565b600680546001600160a01b038381166001600160a01b0319831681179093556040519116919082907f8be0079c531659141344cd1fd0a4f28419497f9722a3daafe3b4186f6b6457e090600090a35050565b6001600160a01b03821661082257604051630b61174360e31b81526001600160a01b0383166004820152602401610403565b6001600160a01b03838116600081815260056020908152604080832094871680845294825291829020805460ff191686151590811790915591519182527f17307eab39ab6107e8899845ad3d59bd9653f200f220920489ca2b5937696c31910160405180910390a3505050565b6001600160a01b0383163b156109b357604051630a85bd0160e11b81526001600160a01b0384169063150b7a02906108d1908890889087908790600401611100565b6020604051808303816000875af192505050801561090c575060408051601f3d908101601f191682019092526109099181019061113c565b60015b610975573d80801561093a576040519150601f19603f3d011682016040523d82523d6000602084013e61093f565b606091505b50805160000361096d57604051633250574960e11b81526001600160a01b0385166004820152602401610403565b805181602001fd5b6001600160e01b03198116630a85bd0160e11b146109b157604051633250574960e11b81526001600160a01b0385166004820152602401610403565b505b5050505050565b606060006109c783610bfb565b600101905060008167ffffffffffffffff8111156109e7576109e7610f4b565b6040519080825280601f01601f191660200182016040528015610a11576020820181803683370190505b5090508181016020015b600019017f3031323334353637383961626364656600000000000000000000000000000000600a86061a8153600a8504945084610a1b57509392505050565b8080610a6e57506001600160a01b03821615155b15610b4f576000610a7e84610618565b90506001600160a01b03831615801590610aaa5750826001600160a01b0316816001600160a01b031614155b8015610adc57506001600160a01b0380821660009081526005602090815260408083209387168352929052205460ff16155b15610b055760405163a9fbf51f60e01b81526001600160a01b0384166004820152602401610403565b8115610b4d5783856001600160a01b0316826001600160a01b03167f8c5be1e5ebec7d5bd14f71427d1e84f3dd0314c0f7b2291e5b200ac8c7c3b92560405160405180910390a45b505b5050600090815260046020526040902080546001600160a01b0319166001600160a01b0392909216919091179055565b610b8a838383610cdd565b6104bb576001600160a01b038316610bb857604051637e27328960e01b815260048101829052602401610403565b60405163177e802f60e01b81526001600160a01b038316600482015260248101829052604401610403565b610bed8383610d63565b6104bb33600085858561088f565b6000807a184f03e93ff9f4daa797ed6e38ed64bf6a1f0100000000000000008310610c44577a184f03e93ff9f4daa797ed6e38ed64bf6a1f010000000000000000830492506040015b6d04ee2d6d415b85acef81000000008310610c70576d04ee2d6d415b85acef8100000000830492506020015b662386f26fc100008310610c8e57662386f26fc10000830492506010015b6305f5e1008310610ca6576305f5e100830492506008015b6127108310610cba57612710830492506004015b60648310610ccc576064830492506002015b600a83106104985760010192915050565b60006001600160a01b03831615801590610d5b5750826001600160a01b0316846001600160a01b03161480610d3757506001600160a01b0380851660009081526005602090815260408083209387168352929052205460ff165b80610d5b57506000828152600460205260409020546001600160a01b038481169116145b949350505050565b6001600160a01b038216610d8d57604051633250574960e11b815260006004820152602401610403565b6000610d9b8383600061065e565b90506001600160a01b038116156104bb576040516339e3563760e11b815260006004820152602401610403565b6001600160e01b03198116811461061557600080fd5b600060208284031215610df057600080fd5b81356105d381610dc8565b60005b83811015610e16578181015183820152602001610dfe565b50506000910152565b60008151808452610e37816020860160208601610dfb565b601f01601f19169290920160200192915050565b6020815260006105d36020830184610e1f565b600060208284031215610e7057600080fd5b5035919050565b80356001600160a01b038116811461049b57600080fd5b60008060408385031215610ea157600080fd5b610eaa83610e77565b946020939093013593505050565b600080600060608486031215610ecd57600080fd5b610ed684610e77565b9250610ee460208501610e77565b9150604084013590509250925092565b600060208284031215610f0657600080fd5b6105d382610e77565b60008060408385031215610f2257600080fd5b610f2b83610e77565b915060208301358015158114610f4057600080fd5b809150509250929050565b634e487b7160e01b600052604160045260246000fd5b60008060008060808587031215610f7757600080fd5b610f8085610e77565b9350610f8e60208601610e77565b925060408501359150606085013567ffffffffffffffff80821115610fb257600080fd5b818701915087601f830112610fc657600080fd5b813581811115610fd857610fd8610f4b565b604051601f8201601f19908116603f0116810190838211818310171561100057611000610f4b565b816040528281528a602084870101111561101957600080fd5b82602086016020830137600060208483010152809550505050505092959194509250565b6000806040838503121561105057600080fd5b61105983610e77565b915061106760208401610e77565b90509250929050565b600181811c9082168061108457607f821691505b6020821081036110a457634e487b7160e01b600052602260045260246000fd5b50919050565b6000600182016110ca57634e487b7160e01b600052601160045260246000fd5b5060010190565b600083516110e3818460208801610dfb565b8351908301906110f7818360208801610dfb565b01949350505050565b60006001600160a01b038087168352808616602084015250836040830152608060608301526111326080830184610e1f565b9695505050505050565b60006020828403121561114e57600080fd5b81516105d381610dc856fea264697066735822122043435af4c8be625a70044f52ba5607367fa09d2e81e4b7e066b06300b7c3e48464736f6c63430008160033",
  "linkReferences": {},
  "deployedLinkReferences": {}
}